{
  "contractName": "FlightSuretyData",
  "abi": [
    {
      "constant": true,
      "inputs": [
        {
          "name": "",
          "type": "uint256"
        }
      ],
      "name": "multiCalls",
      "outputs": [
        {
          "name": "",
          "type": "address"
        }
      ],
      "payable": false,
      "stateMutability": "view",
      "type": "function",
      "signature": "0xb1c65130"
    },
    {
      "inputs": [
        {
          "name": "_airline",
          "type": "address"
        }
      ],
      "payable": false,
      "stateMutability": "nonpayable",
      "type": "constructor",
      "signature": "constructor"
    },
    {
      "constant": true,
      "inputs": [],
      "name": "isOperational",
      "outputs": [
        {
          "name": "",
          "type": "bool"
        }
      ],
      "payable": false,
      "stateMutability": "view",
      "type": "function",
      "signature": "0xcd905dff"
    },
    {
      "constant": false,
      "inputs": [
        {
          "name": "mode",
          "type": "bool"
        }
      ],
      "name": "setOperatingStatus",
      "outputs": [],
      "payable": false,
      "stateMutability": "nonpayable",
      "type": "function",
      "signature": "0x110466ed"
    },
    {
      "constant": false,
      "inputs": [
        {
          "name": "contractAddress",
          "type": "address"
        }
      ],
      "name": "authorizePassengerFunction",
      "outputs": [],
      "payable": false,
      "stateMutability": "nonpayable",
      "type": "function",
      "signature": "0x3f3d5edc"
    },
    {
      "constant": false,
      "inputs": [
        {
          "name": "contractAddress",
          "type": "address"
        }
      ],
      "name": "deauthorizepassengerFunction",
      "outputs": [],
      "payable": false,
      "stateMutability": "nonpayable",
      "type": "function",
      "signature": "0x96e39839"
    },
    {
      "constant": true,
      "inputs": [
        {
          "name": "_address",
          "type": "address"
        }
      ],
      "name": "isAirlineRegisteredFunction",
      "outputs": [
        {
          "name": "",
          "type": "bool"
        }
      ],
      "payable": false,
      "stateMutability": "view",
      "type": "function",
      "signature": "0x0306b332"
    },
    {
      "constant": true,
      "inputs": [
        {
          "name": "_airline",
          "type": "address"
        }
      ],
      "name": "isAirlineFunded",
      "outputs": [
        {
          "name": "",
          "type": "bool"
        }
      ],
      "payable": false,
      "stateMutability": "view",
      "type": "function",
      "signature": "0xf53b6d65"
    },
    {
      "constant": false,
      "inputs": [
        {
          "name": "_address",
          "type": "address"
        }
      ],
      "name": "registerAirlineFunction",
      "outputs": [],
      "payable": false,
      "stateMutability": "nonpayable",
      "type": "function",
      "signature": "0x778b123e"
    },
    {
      "constant": false,
      "inputs": [
        {
          "name": "_passenger",
          "type": "address"
        },
        {
          "name": "_insurancePrice",
          "type": "uint256"
        },
        {
          "name": "_flight",
          "type": "string"
        }
      ],
      "name": "buyFunction",
      "outputs": [],
      "payable": true,
      "stateMutability": "payable",
      "type": "function",
      "signature": "0x6a6650f2"
    },
    {
      "constant": false,
      "inputs": [
        {
          "name": "_originSender",
          "type": "address"
        }
      ],
      "name": "payFunction",
      "outputs": [],
      "payable": true,
      "stateMutability": "payable",
      "type": "function",
      "signature": "0xaae15849"
    },
    {
      "constant": false,
      "inputs": [
        {
          "name": "_flight",
          "type": "string"
        },
        {
          "name": "_passenger",
          "type": "address"
        },
        {
          "name": "_amount",
          "type": "uint256"
        }
      ],
      "name": "setInsuredFunction",
      "outputs": [],
      "payable": false,
      "stateMutability": "nonpayable",
      "type": "function",
      "signature": "0x4f4275d4"
    },
    {
      "constant": true,
      "inputs": [
        {
          "name": "_flight",
          "type": "string"
        }
      ],
      "name": "getInsuredFunction",
      "outputs": [
        {
          "name": "passengers",
          "type": "address[]"
        }
      ],
      "payable": false,
      "stateMutability": "view",
      "type": "function",
      "signature": "0xc3047df0"
    },
    {
      "constant": true,
      "inputs": [],
      "name": "getRegisteredAirlinesNumberFunction",
      "outputs": [
        {
          "name": "num",
          "type": "uint256"
        }
      ],
      "payable": false,
      "stateMutability": "view",
      "type": "function",
      "signature": "0x9c210363"
    },
    {
      "constant": true,
      "inputs": [],
      "name": "getMultiCallsLength",
      "outputs": [
        {
          "name": "",
          "type": "uint256"
        }
      ],
      "payable": false,
      "stateMutability": "view",
      "type": "function",
      "signature": "0xe77db84f"
    },
    {
      "constant": true,
      "inputs": [
        {
          "name": "_i",
          "type": "uint256"
        }
      ],
      "name": "getMultiCallsItem",
      "outputs": [
        {
          "name": "",
          "type": "address"
        }
      ],
      "payable": false,
      "stateMutability": "view",
      "type": "function",
      "signature": "0xc68860b4"
    },
    {
      "constant": false,
      "inputs": [
        {
          "name": "_address",
          "type": "address"
        }
      ],
      "name": "setMultiCallsItem",
      "outputs": [],
      "payable": false,
      "stateMutability": "nonpayable",
      "type": "function",
      "signature": "0xcfa74fe1"
    },
    {
      "constant": false,
      "inputs": [],
      "name": "clearMultiCalls",
      "outputs": [],
      "payable": false,
      "stateMutability": "nonpayable",
      "type": "function",
      "signature": "0x0549409a"
    },
    {
      "constant": true,
      "inputs": [
        {
          "name": "_flight",
          "type": "string"
        },
        {
          "name": "_passenger",
          "type": "address"
        }
      ],
      "name": "getInsuredInfoFunction",
      "outputs": [
        {
          "name": "amount",
          "type": "uint256"
        }
      ],
      "payable": false,
      "stateMutability": "view",
      "type": "function",
      "signature": "0x8aa43f71"
    },
    {
      "constant": false,
      "inputs": [
        {
          "name": "_airline",
          "type": "address"
        },
        {
          "name": "_fund",
          "type": "uint256"
        }
      ],
      "name": "fundFunction",
      "outputs": [],
      "payable": true,
      "stateMutability": "payable",
      "type": "function",
      "signature": "0x20b3ffa5"
    },
    {
      "constant": true,
      "inputs": [
        {
          "name": "_passenger",
          "type": "address"
        },
        {
          "name": "_flight",
          "type": "string"
        }
      ],
      "name": "fetchFlightIndexFunction",
      "outputs": [
        {
          "name": "index",
          "type": "uint256"
        }
      ],
      "payable": false,
      "stateMutability": "view",
      "type": "function",
      "signature": "0x3924e2e4"
    }
  ],
  "bytecode": "0x60806040526001600060146101000a81548160ff02191690831515021790555060006006556000604051908082528060200260200182016040528015620000555781602001602082028038833980820191505090505b50600890805190602001906200006d9291906200016b565b503480156200007b57600080fd5b50604051602080620029be83398101806040528101908080519060200190929190505050336000806101000a81548173ffffffffffffffffffffffffffffffffffffffff021916908373ffffffffffffffffffffffffffffffffffffffff16021790555060408051908101604052806001151581526020016000815250600260008373ffffffffffffffffffffffffffffffffffffffff1673ffffffffffffffffffffffffffffffffffffffff16815260200190815260200160002060008201518160000160006101000a81548160ff021916908315150217905550602082015181600101559050505062000240565b828054828255906000526020600020908101928215620001e7579160200282015b82811115620001e65782518260006101000a81548173ffffffffffffffffffffffffffffffffffffffff021916908373ffffffffffffffffffffffffffffffffffffffff160217905550916020019190600101906200018c565b5b509050620001f69190620001fa565b5090565b6200023d91905b808211156200023957600081816101000a81549073ffffffffffffffffffffffffffffffffffffffff02191690555060010162000201565b5090565b90565b61276e80620002506000396000f300608060405260043610610112576000357c0100000000000000000000000000000000000000000000000000000000900463ffffffff1680630306b332146101175780630549409a14610172578063110466ed1461018957806320b3ffa5146101b85780633924e2e4146101f85780633f3d5edc146102955780634f4275d4146102d85780636a6650f21461033d578063778b123e146103955780638aa43f71146103d857806396e39839146104475780639c2103631461048a578063aae15849146104b5578063b1c65130146104eb578063c3047df014610558578063c68860b4146105e8578063cd905dff14610655578063cfa74fe114610684578063e77db84f146106c7578063f53b6d65146106f2575b600080fd5b34801561012357600080fd5b50610158600480360381019080803573ffffffffffffffffffffffffffffffffffffffff16906020019092919050505061074d565b604051808215151515815260200191505060405180910390f35b34801561017e57600080fd5b506101876107a6565b005b34801561019557600080fd5b506101b66004803603810190808035151590602001909291905050506107ef565b005b6101f6600480360381019080803573ffffffffffffffffffffffffffffffffffffffff169060200190929190803590602001909291905050506108d0565b005b34801561020457600080fd5b5061027f600480360381019080803573ffffffffffffffffffffffffffffffffffffffff169060200190929190803590602001908201803590602001908080601f0160208091040260200160405190810160405280939291908181526020018383808284378201915050505050509192919290505050610a34565b6040518082815260200191505060405180910390f35b3480156102a157600080fd5b506102d6600480360381019080803573ffffffffffffffffffffffffffffffffffffffff169060200190929190505050610d8c565b005b3480156102e457600080fd5b5061033b600480360381019080803590602001908201803590602001919091929391929390803573ffffffffffffffffffffffffffffffffffffffff16906020019092919080359060200190929190505050610e97565b005b610393600480360381019080803573ffffffffffffffffffffffffffffffffffffffff169060200190929190803590602001909291908035906020019082018035906020019190919293919293905050506111a6565b005b3480156103a157600080fd5b506103d6600480360381019080803573ffffffffffffffffffffffffffffffffffffffff169060200190929190505050611798565b005b3480156103e457600080fd5b50610431600480360381019080803590602001908201803590602001919091929391929390803573ffffffffffffffffffffffffffffffffffffffff169060200190929190505050611930565b6040518082815260200191505060405180910390f35b34801561045357600080fd5b50610488600480360381019080803573ffffffffffffffffffffffffffffffffffffffff169060200190929190505050611b07565b005b34801561049657600080fd5b5061049f611c11565b6040518082815260200191505060405180910390f35b6104e9600480360381019080803573ffffffffffffffffffffffffffffffffffffffff169060200190929190505050611cc7565b005b3480156104f757600080fd5b5061051660048036038101908080359060200190929190505050612039565b604051808273ffffffffffffffffffffffffffffffffffffffff1673ffffffffffffffffffffffffffffffffffffffff16815260200191505060405180910390f35b34801561056457600080fd5b50610591600480360381019080803590602001908201803590602001919091929391929390505050612077565b6040518080602001828103825283818151815260200191508051906020019060200280838360005b838110156105d45780820151818401526020810190506105b9565b505050509050019250505060405180910390f35b3480156105f457600080fd5b50610613600480360381019080803590602001909291905050506121d5565b604051808273ffffffffffffffffffffffffffffffffffffffff1673ffffffffffffffffffffffffffffffffffffffff16815260200191505060405180910390f35b34801561066157600080fd5b5061066a612218565b604051808215151515815260200191505060405180910390f35b34801561069057600080fd5b506106c5600480360381019080803573ffffffffffffffffffffffffffffffffffffffff16906020019092919050505061222e565b005b3480156106d357600080fd5b506106dc612297565b6040518082815260200191505060405180910390f35b3480156106fe57600080fd5b50610733600480360381019080803573ffffffffffffffffffffffffffffffffffffffff1690602001909291905050506122a4565b604051808215151515815260200191505060405180910390f35b6000600260008373ffffffffffffffffffffffffffffffffffffffff1673ffffffffffffffffffffffffffffffffffffffff16815260200190815260200160002060000160009054906101000a900460ff169050919050565b60006040519080825280602002602001820160405280156107d65781602001602082028038833980820191505090505b50600890805190602001906107ec9291906123d9565b50565b6000809054906101000a900473ffffffffffffffffffffffffffffffffffffffff1673ffffffffffffffffffffffffffffffffffffffff163373ffffffffffffffffffffffffffffffffffffffff161415156108b3576040517f08c379a000000000000000000000000000000000000000000000000000000000815260040180806020018281038252601c8152602001807f43616c6c6572206973206e6f7420636f6e7472616374206f776e65720000000081525060200191505060405180910390fd5b80600060146101000a81548160ff02191690831515021790555050565b600060149054906101000a900460ff16151561097a576040517f08c379a00000000000000000000000000000000000000000000000000000000081526004018080602001828103825260258152602001807f436f6e74726163742069732063757272656e746c79206e6f74206f706572617481526020017f696f6e616c00000000000000000000000000000000000000000000000000000081525060400191505060405180910390fd5b6109cf81600260008573ffffffffffffffffffffffffffffffffffffffff1673ffffffffffffffffffffffffffffffffffffffff168152602001908152602001600020600101546123a490919063ffffffff16565b600260008473ffffffffffffffffffffffffffffffffffffffff1673ffffffffffffffffffffffffffffffffffffffff16815260200190815260200160002060010181905550610a2a816006546123a490919063ffffffff16565b6006819055505050565b6000606060006005604051908082528060200260200182016040528015610a6f57816020015b6060815260200190600190039081610a5a5790505b509150600460008673ffffffffffffffffffffffffffffffffffffffff1673ffffffffffffffffffffffffffffffffffffffff168152602001908152602001600020600301805480602002602001604051908101604052809291908181526020016000905b82821015610b90578382906000526020600020018054600181600116156101000203166002900480601f016020809104026020016040519081016040528092919081815260200182805460018160011615610100020316600290048015610b7c5780601f10610b5157610100808354040283529160200191610b7c565b820191906000526020600020905b815481529060010190602001808311610b5f57829003601f168201915b505050505081526020019060010190610ad4565b505050509150600090505b8151811015610d7f57836040516020018082805190602001908083835b602083101515610bdd5780518252602082019150602081019050602083039250610bb8565b6001836020036101000a0380198251168184511680821785525050505050509050019150506040516020818303038152906040526040518082805190602001908083835b602083101515610c465780518252602082019150602081019050602083039250610c21565b6001836020036101000a0380198251168184511680821785525050505050509050019150506040518091039020600190048282815181101515610c8557fe5b906020019060200201516040516020018082805190602001908083835b602083101515610cc75780518252602082019150602081019050602083039250610ca2565b6001836020036101000a0380198251168184511680821785525050505050509050019150506040516020818303038152906040526040518082805190602001908083835b602083101515610d305780518252602082019150602081019050602083039250610d0b565b6001836020036101000a0380198251168184511680821785525050505050509050019150506040518091039020600190041415610d7257600181019250610d84565b8080600101915050610b9b565b600092505b505092915050565b6000809054906101000a900473ffffffffffffffffffffffffffffffffffffffff1673ffffffffffffffffffffffffffffffffffffffff163373ffffffffffffffffffffffffffffffffffffffff16141515610e50576040517f08c379a000000000000000000000000000000000000000000000000000000000815260040180806020018281038252601c8152602001807f43616c6c6572206973206e6f7420636f6e7472616374206f776e65720000000081525060200191505060405180910390fd5b60018060008373ffffffffffffffffffffffffffffffffffffffff1673ffffffffffffffffffffffffffffffffffffffff1681526020019081526020016000208190555050565b60008060149054906101000a900460ff161515610f42576040517f08c379a00000000000000000000000000000000000000000000000000000000081526004018080602001828103825260258152602001807f436f6e74726163742069732063757272656e746c79206e6f74206f706572617481526020017f696f6e616c00000000000000000000000000000000000000000000000000000081525060400191505060405180910390fd5b60018060003373ffffffffffffffffffffffffffffffffffffffff1673ffffffffffffffffffffffffffffffffffffffff168152602001908152602001600020541480610fdb57506000809054906101000a900473ffffffffffffffffffffffffffffffffffffffff1673ffffffffffffffffffffffffffffffffffffffff163373ffffffffffffffffffffffffffffffffffffffff16145b151561104f576040517f08c379a000000000000000000000000000000000000000000000000000000000815260040180806020018281038252601b8152602001807f70617373656e676572206973206e6f7420417574686f72697a6564000000000081525060200191505060405180910390fd5b600161108d8487878080601f016020809104026020016040519081016040528093929190818152602001838380828437820191505050505050610a34565b0390506001600460008573ffffffffffffffffffffffffffffffffffffffff1673ffffffffffffffffffffffffffffffffffffffff168152602001908152602001600020600101828154811015156110e157fe5b90600052602060002090602091828204019190066101000a81548160ff02191690831515021790555061115c82600760008673ffffffffffffffffffffffffffffffffffffffff1673ffffffffffffffffffffffffffffffffffffffff168152602001908152602001600020546123a490919063ffffffff16565b600760008573ffffffffffffffffffffffffffffffffffffffff1673ffffffffffffffffffffffffffffffffffffffff168152602001908152602001600020819055505050505050565b606080606060008060149054906101000a900460ff161515611256576040517f08c379a00000000000000000000000000000000000000000000000000000000081526004018080602001828103825260258152602001807f436f6e74726163742069732063757272656e746c79206e6f74206f706572617481526020017f696f6e616c00000000000000000000000000000000000000000000000000000081525060400191505060405180910390fd5b60018060003373ffffffffffffffffffffffffffffffffffffffff1673ffffffffffffffffffffffffffffffffffffffff1681526020019081526020016000205414806112ef57506000809054906101000a900473ffffffffffffffffffffffffffffffffffffffff1673ffffffffffffffffffffffffffffffffffffffff163373ffffffffffffffffffffffffffffffffffffffff16145b1515611363576040517f08c379a000000000000000000000000000000000000000000000000000000000815260040180806020018281038252601b8152602001807f70617373656e676572206973206e6f7420417574686f72697a6564000000000081525060200191505060405180910390fd5b600360405190808252806020026020018201604052801561139857816020015b60608152602001906001900390816113835790505b50935060036040519080825280602002602001820160405280156113cb5781602001602082028038833980820191505090505b50925060036040519080825280602002602001820160405280156113fe5781602001602082028038833980820191505090505b50915060011515600460008a73ffffffffffffffffffffffffffffffffffffffff1673ffffffffffffffffffffffffffffffffffffffff16815260200190815260200160002060000160009054906101000a900460ff1615151415611518576114998887878080601f016020809104026020016040519081016040528093929190818152602001838380828437820191505050505050610a34565b9050600081141515611513576040517f08c379a00000000000000000000000000000000000000000000000000000000081526004018080602001828103825260158152602001807f50617373656e67657220697320696e73757265642e000000000000000000000081525060200191505060405180910390fd5b611689565b600083600081518110151561152957fe5b90602001906020020190151590811515815250508682600081518110151561154d57fe5b906020019060200201818152505085858080601f01602080910402602001604051908101604052809392919081815260200183838082843782019150505050505084600081518110151561159d57fe5b9060200190602002018190525060806040519081016040528060011515815260200184815260200183815260200185815250600460008a73ffffffffffffffffffffffffffffffffffffffff1673ffffffffffffffffffffffffffffffffffffffff16815260200190815260200160002060008201518160000160006101000a81548160ff021916908315150217905550602082015181600101908051906020019061164a929190612463565b506040820151816002019080519060200190611667929190612509565b506060820151816003019080519060200190611684929190612556565b509050505b61169e876006546123a490919063ffffffff16565b600681905550600586866040518083838082843782019150509250505090815260200160405180910390208890806001815401808255809150509060018203906000526020600020016000909192909190916101000a81548173ffffffffffffffffffffffffffffffffffffffff021916908373ffffffffffffffffffffffffffffffffffffffff160217905550506117658760098888604051808383808284378201915050925050509081526020016040518091039020546123a490919063ffffffff16565b60098787604051808383808284378201915050925050509081526020016040518091039020819055505050505050505050565b600060149054906101000a900460ff161515611842576040517f08c379a00000000000000000000000000000000000000000000000000000000081526004018080602001828103825260258152602001807f436f6e74726163742069732063757272656e746c79206e6f74206f706572617481526020017f696f6e616c00000000000000000000000000000000000000000000000000000081525060400191505060405180910390fd5b60408051908101604052806001151581526020016000815250600260008373ffffffffffffffffffffffffffffffffffffffff1673ffffffffffffffffffffffffffffffffffffffff16815260200190815260200160002060008201518160000160006101000a81548160ff0219169083151502179055506020820151816001015590505060038190806001815401808255809150509060018203906000526020600020016000909192909190916101000a81548173ffffffffffffffffffffffffffffffffffffffff021916908373ffffffffffffffffffffffffffffffffffffffff1602179055505050565b600080600060149054906101000a900460ff1615156119dd576040517f08c379a00000000000000000000000000000000000000000000000000000000081526004018080602001828103825260258152602001807f436f6e74726163742069732063757272656e746c79206e6f74206f706572617481526020017f696f6e616c00000000000000000000000000000000000000000000000000000081525060400191505060405180910390fd5b6001611a1b8487878080601f016020809104026020016040519081016040528093929190818152602001838380828437820191505050505050610a34565b03905060001515600460008573ffffffffffffffffffffffffffffffffffffffff1673ffffffffffffffffffffffffffffffffffffffff16815260200190815260200160002060010182815481101515611a7157fe5b90600052602060002090602091828204019190069054906101000a900460ff1615151415611afa57600460008473ffffffffffffffffffffffffffffffffffffffff1673ffffffffffffffffffffffffffffffffffffffff16815260200190815260200160002060020181815481101515611ae857fe5b90600052602060002001549150611aff565b600091505b509392505050565b6000809054906101000a900473ffffffffffffffffffffffffffffffffffffffff1673ffffffffffffffffffffffffffffffffffffffff163373ffffffffffffffffffffffffffffffffffffffff16141515611bcb576040517f08c379a000000000000000000000000000000000000000000000000000000000815260040180806020018281038252601c8152602001807f43616c6c6572206973206e6f7420636f6e7472616374206f776e65720000000081525060200191505060405180910390fd5b600160008273ffffffffffffffffffffffffffffffffffffffff1673ffffffffffffffffffffffffffffffffffffffff1681526020019081526020016000206000905550565b60008060149054906101000a900460ff161515611cbc576040517f08c379a00000000000000000000000000000000000000000000000000000000081526004018080602001828103825260258152602001807f436f6e74726163742069732063757272656e746c79206e6f74206f706572617481526020017f696f6e616c00000000000000000000000000000000000000000000000000000081525060400191505060405180910390fd5b600380549050905090565b60008060149054906101000a900460ff161515611d72576040517f08c379a00000000000000000000000000000000000000000000000000000000081526004018080602001828103825260258152602001807f436f6e74726163742069732063757272656e746c79206e6f74206f706572617481526020017f696f6e616c00000000000000000000000000000000000000000000000000000081525060400191505060405180910390fd5b60018060003373ffffffffffffffffffffffffffffffffffffffff1673ffffffffffffffffffffffffffffffffffffffff168152602001908152602001600020541480611e0b57506000809054906101000a900473ffffffffffffffffffffffffffffffffffffffff1673ffffffffffffffffffffffffffffffffffffffff163373ffffffffffffffffffffffffffffffffffffffff16145b1515611e7f576040517f08c379a000000000000000000000000000000000000000000000000000000000815260040180806020018281038252601b8152602001807f70617373656e676572206973206e6f7420417574686f72697a6564000000000081525060200191505060405180910390fd5b600760008373ffffffffffffffffffffffffffffffffffffffff1673ffffffffffffffffffffffffffffffffffffffff168152602001908152602001600020543073ffffffffffffffffffffffffffffffffffffffff1631111515611f4c576040517f08c379a00000000000000000000000000000000000000000000000000000000081526004018080602001828103825260128152602001807f496e73756666696369656e742046756e6473000000000000000000000000000081525060200191505060405180910390fd5b600760008373ffffffffffffffffffffffffffffffffffffffff1673ffffffffffffffffffffffffffffffffffffffff1681526020019081526020016000205490506000600760008473ffffffffffffffffffffffffffffffffffffffff1673ffffffffffffffffffffffffffffffffffffffff16815260200190815260200160002081905550611fe8816006546123c090919063ffffffff16565b6006819055508173ffffffffffffffffffffffffffffffffffffffff166108fc829081150290604051600060405180830381858888f19350505050158015612034573d6000803e3d6000fd5b505050565b60088181548110151561204857fe5b906000526020600020016000915054906101000a900473ffffffffffffffffffffffffffffffffffffffff1681565b6060600060149054906101000a900460ff161515612123576040517f08c379a00000000000000000000000000000000000000000000000000000000081526004018080602001828103825260258152602001807f436f6e74726163742069732063757272656e746c79206e6f74206f706572617481526020017f696f6e616c00000000000000000000000000000000000000000000000000000081525060400191505060405180910390fd5b600583836040518083838082843782019150509250505090815260200160405180910390208054806020026020016040519081016040528092919081815260200182805480156121c857602002820191906000526020600020905b8160009054906101000a900473ffffffffffffffffffffffffffffffffffffffff1673ffffffffffffffffffffffffffffffffffffffff168152602001906001019080831161217e575b5050505050905092915050565b60006008828154811015156121e657fe5b9060005260206000200160009054906101000a900473ffffffffffffffffffffffffffffffffffffffff169050919050565b60008060149054906101000a900460ff16905090565b60088190806001815401808255809150509060018203906000526020600020016000909192909190916101000a81548173ffffffffffffffffffffffffffffffffffffffff021916908373ffffffffffffffffffffffffffffffffffffffff1602179055505050565b6000600880549050905090565b60008060149054906101000a900460ff16151561234f576040517f08c379a00000000000000000000000000000000000000000000000000000000081526004018080602001828103825260258152602001807f436f6e74726163742069732063757272656e746c79206e6f74206f706572617481526020017f696f6e616c00000000000000000000000000000000000000000000000000000081525060400191505060405180910390fd5b678ac7230489e80000600260008473ffffffffffffffffffffffffffffffffffffffff1673ffffffffffffffffffffffffffffffffffffffff1681526020019081526020016000206001015410159050919050565b600081830190508281101515156123b757fe5b80905092915050565b60008282111515156123ce57fe5b818303905092915050565b828054828255906000526020600020908101928215612452579160200282015b828111156124515782518260006101000a81548173ffffffffffffffffffffffffffffffffffffffff021916908373ffffffffffffffffffffffffffffffffffffffff160217905550916020019190600101906123f9565b5b50905061245f91906125b6565b5090565b82805482825590600052602060002090601f016020900481019282156124f85791602002820160005b838211156124c957835183826101000a81548160ff021916908315150217905550926020019260010160208160000104928301926001030261248c565b80156124f65782816101000a81549060ff02191690556001016020816000010492830192600103026124c9565b505b50905061250591906125f9565b5090565b828054828255906000526020600020908101928215612545579160200282015b82811115612544578251825591602001919060010190612529565b5b5090506125529190612629565b5090565b8280548282559060005260206000209081019282156125a5579160200282015b828111156125a457825182908051906020019061259492919061264e565b5091602001919060010190612576565b5b5090506125b291906126ce565b5090565b6125f691905b808211156125f257600081816101000a81549073ffffffffffffffffffffffffffffffffffffffff0219169055506001016125bc565b5090565b90565b61262691905b8082111561262257600081816101000a81549060ff0219169055506001016125ff565b5090565b90565b61264b91905b8082111561264757600081600090555060010161262f565b5090565b90565b828054600181600116156101000203166002900490600052602060002090601f016020900481019282601f1061268f57805160ff19168380011785556126bd565b828001600101855582156126bd579182015b828111156126bc5782518255916020019190600101906126a1565b5b5090506126ca9190612629565b5090565b6126f791905b808211156126f357600081816126ea91906126fa565b506001016126d4565b5090565b90565b50805460018160011615610100020316600290046000825580601f10612720575061273f565b601f01602090049060005260206000209081019061273e9190612629565b5b505600a165627a7a723058203a40f702f9b3d67dbfa1887d6f6b73c12ec158d4941858804dedbde7007391f10029",
  "source": "pragma solidity ^0.4.25;\n\nimport \"../node_modules/openzeppelin-solidity/contracts/math/SafeMath.sol\";\n\ncontract FlightSuretyData {\n    using SafeMath for uint256;\n\n    /********************************************************************************************/\n    /*                                       DATA VARIABLES                                     */\n    /********************************************************************************************/\n\n    // Account used to deploy contract\n    address private contractOwner; \n\n    // Blocks all state changes throughout the contract if false\n    bool private operational = true;                                    \n\n    // maps authorizedpassenger variable to address of integer\n    mapping(address => uint256) private authorizedpassenger;                \n\n    //Captures the attributes of the airline\n    struct AirlineStruct {\n        bool isRegistered;\n        uint256 funds;\n    }\n\n    // maps airline variable to struct\n    mapping(address => AirlineStruct) private airlines;\n    //array\n    address[] private registeredAirlines;\n\n    //Captures the attributes of passenger\n    struct PassengerStruct {\n        bool isInsured;     \n        bool[] isPaid;\n        uint256[] insurance;\n        string[] flights;\n    }\n\n    mapping(address => PassengerStruct) private passengersMapping;\n    mapping(string => address[]) flightPassengers;\n\n\n    // the contract holds balance of insurance\n    uint256 private balance = 0 ether;\n    // registration fee\n    uint256 constant registration = 10 ether;\n\n    // passenger[x].funds\n    mapping(address => uint256) private insurancePayment;\n\n   // consensus array\n    address[] public multiCalls = new address[](0);\n    //Flight mapping Amount\n    mapping(string => uint256) private flightInsuranceAmount;\n    /********************************************************************************************/\n    /*                                       EVENT DEFINITIONS                                  */\n    /********************************************************************************************/\n\n\n    /**\n    * @dev Constructor\n    *      The deploying account becomes contractOwner\n    */\n    //https://ethereum.stackexchange.com/questions/56443/what-does-mean-before-a-variable-name\n    constructor\n                                (\n                                    address _airline\n                                ) \n                                public \n    {\n        contractOwner = msg.sender;\n\n        // Create first Airline\n        airlines[_airline] =  AirlineStruct({isRegistered: true, funds: 0});\n    }\n\n    \n\n    /********************************************************************************************/\n    /*                                       FUNCTION MODIFIERS                                 */\n    /********************************************************************************************/\n\n    // Modifiers help avoid duplication of code. They are typically used to validate something\n    // before a function is allowed to be executed.\n\n    /**\n    * @dev Modifier that requires the \"operational\" boolean variable to be \"true\"\n    *      This is used on all state changing functions to pause the contract in \n    *      the event there is an issue that needs to be fixed\n    */\n    modifier requireIsOperational() \n    {\n        require(operational, \"Contract is currently not operational\");\n        _;  // All modifiers require an \"_\" which indicates where the function body will be added\n    }\n\n    /**\n    * @dev Modifier that requires the \"ContractOwner\" account to be the function caller\n    */\n    modifier requireContractOwner()\n    {\n        require(msg.sender == contractOwner, \"Caller is not contract owner\");\n        _;\n    }\n\n    modifier requireIspassengerAuthorized()\n    {\n        require(authorizedpassenger[msg.sender] == 1 ||msg.sender == contractOwner, \"passenger is not Authorized\");\n        _;\n    }\n\n    /********************************************************************************************/\n    /*                                       UTILITY FUNCTIONS                                  */\n    /********************************************************************************************/\n\n    /**\n    * @dev Get operating status of contract\n    *\n    * @return A bool that is the current operating status\n    */      \n    function isOperational() \n                            public \n                            view \n                            returns(bool) \n    {\n        return operational;\n    }\n\n    /**\n    * @dev Sets contract operations on/off\n    *\n    * When operational mode is disabled, all write transactions except for this one will fail\n    */    \n    function setOperatingStatus\n                            (\n                                bool mode\n                            ) \n                            external\n                            requireContractOwner \n    {\n        operational = mode;\n    }\n\n    function authorizePassengerFunction(address contractAddress) external requireContractOwner\n    {\n        authorizedpassenger[contractAddress] = 1;\n    }\n\n    function deauthorizepassengerFunction(address contractAddress) external requireContractOwner\n    {\n        delete authorizedpassenger[contractAddress];\n    }\n    function isAirlineRegisteredFunction\n                            (\n                                address _address\n                            )\n                            external\n                            view\n                            returns(bool)\n    {\n        return airlines[_address].isRegistered;\n    }\n\n\n    function isAirlineFunded\n                            (\n                                address _airline\n                            ) \n                            external \n                            view \n                            requireIsOperational \n                            returns (bool) \n    {\n        return airlines[_airline].funds >= registration;\n    }\n\n    /********************************************************************************************/\n    /*                                     SMART CONTRACT FUNCTIONS                             */\n    /********************************************************************************************/\n\n   /**\n    * @dev Add an airline to the registration queue\n    *      Can only be called from FlightSuretyApp contract\n    *\n    */   \n    function registerAirlineFunction\n                            (   \n                                address _address \n                            )\n                            external\n                            requireIsOperational\n                    \n    {\n        airlines[_address] = AirlineStruct ({\n                                        isRegistered: true,\n                                        funds: 0\n                                    });\n        registeredAirlines.push(_address);\n    }\n\n   /**\n    * @dev Buy insurance for a flight\n    *\n    */   \n    function buyFunction\n                            (   \n                            address _passenger,\n                            uint256 _insurancePrice,\n                            string _flight\n                            )\n                            external\n                            payable\n                            requireIsOperational\n                            requireIspassengerAuthorized\n    {\n        string[] memory flights = new string[](3);\n        bool[] memory paid = new bool[](3);\n        uint256[] memory insurance = new uint[](3);\n        uint index;\n\n        if(passengersMapping[_passenger].isInsured == true){\n            index = fetchFlightIndexFunction(_passenger, _flight) ;\n            require(index == 0, \"Passenger is insured.\");\n\n        }else {\n            paid[0] = false;\n            insurance[0] = _insurancePrice;\n            flights[0] = _flight;\n            passengersMapping[_passenger] = PassengerStruct({isInsured: true, isPaid: paid, insurance: insurance, flights: flights});\n        }\n\n        // pay for the insurance amount\n        balance = balance.add(_insurancePrice);\n        flightPassengers[_flight].push(_passenger);\n        flightInsuranceAmount[_flight] = flightInsuranceAmount[_flight].add(_insurancePrice);\n    }\n\n    /**\n     *  @dev Credits payouts to insurees\n    */\n\n    /**\n     *  @dev Transfers eligible payout funds to insuree\n     *\n    */\n    function payFunction\n                            (\n                                address _originSender\n                            )\n                            public\n                            payable\n                            requireIsOperational\n                            requireIspassengerAuthorized\n    {\n        require(address(this).balance > insurancePayment[_originSender], \"Insufficient Funds\");\n\n        uint256 deposit = insurancePayment[_originSender];\n        insurancePayment[_originSender] = 0;\n        balance = balance.sub(deposit);\n        _originSender.transfer(deposit);\n    }\n\n    function setInsuredFunction\n                        (\n                            string _flight, \n                            address _passenger,\n                            uint _amount\n                        ) \n                        external \n                        requireIsOperational\n                        requireIspassengerAuthorized\n    {\n\n        uint index = fetchFlightIndexFunction(_passenger, _flight) - 1;\n        passengersMapping[_passenger].isPaid[index] = true;\n        insurancePayment[_passenger] = insurancePayment[_passenger].add(_amount);\n    }\n\n    function getInsuredFunction\n                        (\n                            string _flight\n                        ) \n                        external \n                        view \n                        requireIsOperational \n                        returns(address[] passengers)\n    {\n        return flightPassengers[_flight];\n    }\n\n    function getRegisteredAirlinesNumberFunction() public view requireIsOperational returns (uint num){\n        return registeredAirlines.length;\n    }\n\n    function getMultiCallsLength() public view returns(uint){\n        return multiCalls.length;\n    }\n\n    function getMultiCallsItem(uint _i) public view returns(address){\n        return multiCalls[_i];\n    }\n    function setMultiCallsItem(address _address) public {\n        multiCalls.push(_address);\n    }\n\n    function clearMultiCalls() public{\n        multiCalls = new address[](0);\n    }\n\n    function getInsuredInfoFunction(string _flight, address _passenger) external view requireIsOperational returns (uint amount){\n        uint index = fetchFlightIndexFunction(_passenger, _flight) - 1;\n        if(passengersMapping[_passenger].isPaid[index] == false)\n        {\n            return passengersMapping[_passenger].insurance[index];\n        }\n        return 0;\n    }\n    \n    function fundFunction\n                            (  \n                                address _airline,\n                                uint256 _fund  \n                            )\n                            public\n                            payable\n                            requireIsOperational\n    {\n        airlines[_airline].funds = airlines[_airline].funds.add(_fund);\n        balance = balance.add(_fund);\n    }\n   /**\n    * @dev Initial funding for the insurance. Unless there are too many delayed flights\n    *      resulting in insurance payouts, the contract should be self-sustaining\n    *\n    */   \n\n    function fetchFlightIndexFunction\n                                (\n                                    address _passenger, \n                                    string memory _flight\n                                ) \n                                public \n                                view \n                                returns(uint index)\n    {\n        string[] memory flights = new string[](5);\n        flights = passengersMapping[_passenger].flights;\n\n        for(uint i = 0; i < flights.length; i++){\n            if(uint(keccak256(abi.encodePacked(flights[i]))) == uint(keccak256(abi.encodePacked(_flight)))) \n            {\n                return(i + 1);\n            }\n        }\n\n        return(0);\n    }\n\n\n    function getFlightKey\n                        (\n                            address _airline,\n                            string memory _flight,\n                            uint256 _timestamp\n                        )\n                        pure\n                        internal\n                        returns(bytes32) \n    {\n        return keccak256(abi.encodePacked(_airline, _flight, _timestamp));\n    }\n}",
  "sourcePath": "/Users/203014767/FlightSurety-master/contracts/FlightSuretyData.sol",
  "compiler": {
    "name": "solc",
    "version": "0.4.25+commit.59dbf8f1.Emscripten.clang"
  },
  "schemaVersion": "3.0.6",
  "updatedAt": "2019-04-27T15:50:51.072Z",
  "devdoc": {
    "methods": {
      "buyFunction(address,uint256,string)": {
        "details": "Buy insurance for a flight    "
      },
      "fetchFlightIndexFunction(address,string)": {
        "details": "Initial funding for the insurance. Unless there are too many delayed flights     resulting in insurance payouts, the contract should be self-sustaining    "
      },
      "isOperational()": {
        "details": "Get operating status of contract",
        "return": "A bool that is the current operating status"
      },
      "payFunction(address)": {
        "details": "Transfers eligible payout funds to insuree    "
      },
      "registerAirlineFunction(address)": {
        "details": "Add an airline to the registration queue     Can only be called from FlightSuretyApp contract    "
      },
      "setOperatingStatus(bool)": {
        "details": "Sets contract operations on/off    * When operational mode is disabled, all write transactions except for this one will fail"
      }
    }
  },
  "userdoc": {
    "methods": {}
  }
}