{
  "contractName": "FlightSuretyData",
  "abi": [
    {
      "constant": true,
      "inputs": [
        {
          "name": "",
          "type": "uint256"
        }
      ],
      "name": "multiCalls",
      "outputs": [
        {
          "name": "",
          "type": "address"
        }
      ],
      "payable": false,
      "stateMutability": "view",
      "type": "function",
      "signature": "0xb1c65130"
    },
    {
      "inputs": [
        {
          "name": "_airline",
          "type": "address"
        }
      ],
      "payable": false,
      "stateMutability": "nonpayable",
      "type": "constructor",
      "signature": "constructor"
    },
    {
      "constant": true,
      "inputs": [],
      "name": "isOperational",
      "outputs": [
        {
          "name": "",
          "type": "bool"
        }
      ],
      "payable": false,
      "stateMutability": "view",
      "type": "function",
      "signature": "0xcd905dff"
    },
    {
      "constant": false,
      "inputs": [
        {
          "name": "mode",
          "type": "bool"
        }
      ],
      "name": "setOperatingStatus",
      "outputs": [],
      "payable": false,
      "stateMutability": "nonpayable",
      "type": "function",
      "signature": "0x110466ed"
    },
    {
      "constant": false,
      "inputs": [
        {
          "name": "contractAddress",
          "type": "address"
        }
      ],
      "name": "authorizePassengerFunction",
      "outputs": [],
      "payable": false,
      "stateMutability": "nonpayable",
      "type": "function",
      "signature": "0x3f3d5edc"
    },
    {
      "constant": false,
      "inputs": [
        {
          "name": "contractAddress",
          "type": "address"
        }
      ],
      "name": "deauthorizepassengerFunction",
      "outputs": [],
      "payable": false,
      "stateMutability": "nonpayable",
      "type": "function",
      "signature": "0x96e39839"
    },
    {
      "constant": true,
      "inputs": [
        {
          "name": "_address",
          "type": "address"
        }
      ],
      "name": "isAirlineRegisteredFunction",
      "outputs": [
        {
          "name": "",
          "type": "bool"
        }
      ],
      "payable": false,
      "stateMutability": "view",
      "type": "function",
      "signature": "0x0306b332"
    },
    {
      "constant": true,
      "inputs": [
        {
          "name": "_airline",
          "type": "address"
        }
      ],
      "name": "isAirlineFunded",
      "outputs": [
        {
          "name": "",
          "type": "bool"
        }
      ],
      "payable": false,
      "stateMutability": "view",
      "type": "function",
      "signature": "0xf53b6d65"
    },
    {
      "constant": false,
      "inputs": [
        {
          "name": "_address",
          "type": "address"
        }
      ],
      "name": "registerAirlineFunction",
      "outputs": [],
      "payable": false,
      "stateMutability": "nonpayable",
      "type": "function",
      "signature": "0x778b123e"
    },
    {
      "constant": false,
      "inputs": [
        {
          "name": "_passenger",
          "type": "address"
        },
        {
          "name": "_insurancePrice",
          "type": "uint256"
        },
        {
          "name": "_flight",
          "type": "string"
        }
      ],
      "name": "buyFunction",
      "outputs": [],
      "payable": true,
      "stateMutability": "payable",
      "type": "function",
      "signature": "0x6a6650f2"
    },
    {
      "constant": false,
      "inputs": [
        {
          "name": "_originSender",
          "type": "address"
        }
      ],
      "name": "payFunction",
      "outputs": [],
      "payable": true,
      "stateMutability": "payable",
      "type": "function",
      "signature": "0xaae15849"
    },
    {
      "constant": false,
      "inputs": [
        {
          "name": "_flight",
          "type": "string"
        },
        {
          "name": "_passenger",
          "type": "address"
        },
        {
          "name": "_amount",
          "type": "uint256"
        }
      ],
      "name": "setInsuredFunction",
      "outputs": [],
      "payable": false,
      "stateMutability": "nonpayable",
      "type": "function",
      "signature": "0x4f4275d4"
    },
    {
      "constant": true,
      "inputs": [
        {
          "name": "_flight",
          "type": "string"
        }
      ],
      "name": "getInsuredFunction",
      "outputs": [
        {
          "name": "passengers",
          "type": "address[]"
        }
      ],
      "payable": false,
      "stateMutability": "view",
      "type": "function",
      "signature": "0xc3047df0"
    },
    {
      "constant": true,
      "inputs": [],
      "name": "getRegisteredAirlinesNumberFunction",
      "outputs": [
        {
          "name": "num",
          "type": "uint256"
        }
      ],
      "payable": false,
      "stateMutability": "view",
      "type": "function",
      "signature": "0x9c210363"
    },
    {
      "constant": true,
      "inputs": [
        {
          "name": "_airline",
          "type": "address"
        }
      ],
      "name": "isAirlineRegistered",
      "outputs": [
        {
          "name": "success",
          "type": "bool"
        }
      ],
      "payable": false,
      "stateMutability": "view",
      "type": "function",
      "signature": "0x010c5c97"
    },
    {
      "constant": true,
      "inputs": [],
      "name": "getMultiCallsLength",
      "outputs": [
        {
          "name": "",
          "type": "uint256"
        }
      ],
      "payable": false,
      "stateMutability": "view",
      "type": "function",
      "signature": "0xe77db84f"
    },
    {
      "constant": true,
      "inputs": [
        {
          "name": "_i",
          "type": "uint256"
        }
      ],
      "name": "getMultiCallsItem",
      "outputs": [
        {
          "name": "",
          "type": "address"
        }
      ],
      "payable": false,
      "stateMutability": "view",
      "type": "function",
      "signature": "0xc68860b4"
    },
    {
      "constant": false,
      "inputs": [
        {
          "name": "_address",
          "type": "address"
        }
      ],
      "name": "setMultiCallsItem",
      "outputs": [],
      "payable": false,
      "stateMutability": "nonpayable",
      "type": "function",
      "signature": "0xcfa74fe1"
    },
    {
      "constant": false,
      "inputs": [],
      "name": "clearMultiCalls",
      "outputs": [],
      "payable": false,
      "stateMutability": "nonpayable",
      "type": "function",
      "signature": "0x0549409a"
    },
    {
      "constant": true,
      "inputs": [
        {
          "name": "_flight",
          "type": "string"
        },
        {
          "name": "_passenger",
          "type": "address"
        }
      ],
      "name": "getInsuredInfoFunction",
      "outputs": [
        {
          "name": "amount",
          "type": "uint256"
        }
      ],
      "payable": false,
      "stateMutability": "view",
      "type": "function",
      "signature": "0x8aa43f71"
    },
    {
      "constant": false,
      "inputs": [
        {
          "name": "_airline",
          "type": "address"
        },
        {
          "name": "_fund",
          "type": "uint256"
        }
      ],
      "name": "fundFunction",
      "outputs": [],
      "payable": true,
      "stateMutability": "payable",
      "type": "function",
      "signature": "0x20b3ffa5"
    },
    {
      "constant": true,
      "inputs": [
        {
          "name": "_passenger",
          "type": "address"
        },
        {
          "name": "_flight",
          "type": "string"
        }
      ],
      "name": "fetchFlightIndexFunction",
      "outputs": [
        {
          "name": "index",
          "type": "uint256"
        }
      ],
      "payable": false,
      "stateMutability": "view",
      "type": "function",
      "signature": "0x3924e2e4"
    }
  ],
  "bytecode": "0x60806040526001600060146101000a81548160ff02191690831515021790555060006006556000604051908082528060200260200182016040528015620000555781602001602082028038833980820191505090505b50600890805190602001906200006d9291906200016b565b503480156200007b57600080fd5b5060405160208062002b2683398101806040528101908080519060200190929190505050336000806101000a81548173ffffffffffffffffffffffffffffffffffffffff021916908373ffffffffffffffffffffffffffffffffffffffff16021790555060408051908101604052806001151581526020016000815250600260008373ffffffffffffffffffffffffffffffffffffffff1673ffffffffffffffffffffffffffffffffffffffff16815260200190815260200160002060008201518160000160006101000a81548160ff021916908315150217905550602082015181600101559050505062000240565b828054828255906000526020600020908101928215620001e7579160200282015b82811115620001e65782518260006101000a81548173ffffffffffffffffffffffffffffffffffffffff021916908373ffffffffffffffffffffffffffffffffffffffff160217905550916020019190600101906200018c565b5b509050620001f69190620001fa565b5090565b6200023d91905b808211156200023957600081816101000a81549073ffffffffffffffffffffffffffffffffffffffff02191690555060010162000201565b5090565b90565b6128d680620002506000396000f30060806040526004361061011d576000357c0100000000000000000000000000000000000000000000000000000000900463ffffffff168063010c5c97146101225780630306b3321461017d5780630549409a146101d8578063110466ed146101ef57806320b3ffa51461021e5780633924e2e41461025e5780633f3d5edc146102fb5780634f4275d41461033e5780636a6650f2146103a3578063778b123e146103fb5780638aa43f711461043e57806396e39839146104ad5780639c210363146104f0578063aae158491461051b578063b1c6513014610551578063c3047df0146105be578063c68860b41461064e578063cd905dff146106bb578063cfa74fe1146106ea578063e77db84f1461072d578063f53b6d6514610758575b600080fd5b34801561012e57600080fd5b50610163600480360381019080803573ffffffffffffffffffffffffffffffffffffffff1690602001909291905050506107b3565b604051808215151515815260200191505060405180910390f35b34801561018957600080fd5b506101be600480360381019080803573ffffffffffffffffffffffffffffffffffffffff1690602001909291905050506108b5565b604051808215151515815260200191505060405180910390f35b3480156101e457600080fd5b506101ed61090e565b005b3480156101fb57600080fd5b5061021c600480360381019080803515159060200190929190505050610957565b005b61025c600480360381019080803573ffffffffffffffffffffffffffffffffffffffff16906020019092919080359060200190929190505050610a38565b005b34801561026a57600080fd5b506102e5600480360381019080803573ffffffffffffffffffffffffffffffffffffffff169060200190929190803590602001908201803590602001908080601f0160208091040260200160405190810160405280939291908181526020018383808284378201915050505050509192919290505050610b9c565b6040518082815260200191505060405180910390f35b34801561030757600080fd5b5061033c600480360381019080803573ffffffffffffffffffffffffffffffffffffffff169060200190929190505050610ef4565b005b34801561034a57600080fd5b506103a1600480360381019080803590602001908201803590602001919091929391929390803573ffffffffffffffffffffffffffffffffffffffff16906020019092919080359060200190929190505050610fff565b005b6103f9600480360381019080803573ffffffffffffffffffffffffffffffffffffffff1690602001909291908035906020019092919080359060200190820180359060200191909192939192939050505061130e565b005b34801561040757600080fd5b5061043c600480360381019080803573ffffffffffffffffffffffffffffffffffffffff169060200190929190505050611900565b005b34801561044a57600080fd5b50610497600480360381019080803590602001908201803590602001919091929391929390803573ffffffffffffffffffffffffffffffffffffffff169060200190929190505050611a98565b6040518082815260200191505060405180910390f35b3480156104b957600080fd5b506104ee600480360381019080803573ffffffffffffffffffffffffffffffffffffffff169060200190929190505050611c6f565b005b3480156104fc57600080fd5b50610505611d79565b6040518082815260200191505060405180910390f35b61054f600480360381019080803573ffffffffffffffffffffffffffffffffffffffff169060200190929190505050611e2f565b005b34801561055d57600080fd5b5061057c600480360381019080803590602001909291905050506121a1565b604051808273ffffffffffffffffffffffffffffffffffffffff1673ffffffffffffffffffffffffffffffffffffffff16815260200191505060405180910390f35b3480156105ca57600080fd5b506105f76004803603810190808035906020019082018035906020019190919293919293905050506121df565b6040518080602001828103825283818151815260200191508051906020019060200280838360005b8381101561063a57808201518184015260208101905061061f565b505050509050019250505060405180910390f35b34801561065a57600080fd5b506106796004803603810190808035906020019092919050505061233d565b604051808273ffffffffffffffffffffffffffffffffffffffff1673ffffffffffffffffffffffffffffffffffffffff16815260200191505060405180910390f35b3480156106c757600080fd5b506106d0612380565b604051808215151515815260200191505060405180910390f35b3480156106f657600080fd5b5061072b600480360381019080803573ffffffffffffffffffffffffffffffffffffffff169060200190929190505050612396565b005b34801561073957600080fd5b506107426123ff565b6040518082815260200191505060405180910390f35b34801561076457600080fd5b50610799600480360381019080803573ffffffffffffffffffffffffffffffffffffffff16906020019092919050505061240c565b604051808215151515815260200191505060405180910390f35b60008060149054906101000a900460ff16151561085e576040517f08c379a00000000000000000000000000000000000000000000000000000000081526004018080602001828103825260258152602001807f436f6e74726163742069732063757272656e746c79206e6f74206f706572617481526020017f696f6e616c00000000000000000000000000000000000000000000000000000081525060400191505060405180910390fd5b600260008373ffffffffffffffffffffffffffffffffffffffff1673ffffffffffffffffffffffffffffffffffffffff16815260200190815260200160002060000160009054906101000a900460ff169050919050565b6000600260008373ffffffffffffffffffffffffffffffffffffffff1673ffffffffffffffffffffffffffffffffffffffff16815260200190815260200160002060000160009054906101000a900460ff169050919050565b600060405190808252806020026020018201604052801561093e5781602001602082028038833980820191505090505b5060089080519060200190610954929190612541565b50565b6000809054906101000a900473ffffffffffffffffffffffffffffffffffffffff1673ffffffffffffffffffffffffffffffffffffffff163373ffffffffffffffffffffffffffffffffffffffff16141515610a1b576040517f08c379a000000000000000000000000000000000000000000000000000000000815260040180806020018281038252601c8152602001807f43616c6c6572206973206e6f7420636f6e7472616374206f776e65720000000081525060200191505060405180910390fd5b80600060146101000a81548160ff02191690831515021790555050565b600060149054906101000a900460ff161515610ae2576040517f08c379a00000000000000000000000000000000000000000000000000000000081526004018080602001828103825260258152602001807f436f6e74726163742069732063757272656e746c79206e6f74206f706572617481526020017f696f6e616c00000000000000000000000000000000000000000000000000000081525060400191505060405180910390fd5b610b3781600260008573ffffffffffffffffffffffffffffffffffffffff1673ffffffffffffffffffffffffffffffffffffffff1681526020019081526020016000206001015461250c90919063ffffffff16565b600260008473ffffffffffffffffffffffffffffffffffffffff1673ffffffffffffffffffffffffffffffffffffffff16815260200190815260200160002060010181905550610b928160065461250c90919063ffffffff16565b6006819055505050565b6000606060006005604051908082528060200260200182016040528015610bd757816020015b6060815260200190600190039081610bc25790505b509150600460008673ffffffffffffffffffffffffffffffffffffffff1673ffffffffffffffffffffffffffffffffffffffff168152602001908152602001600020600301805480602002602001604051908101604052809291908181526020016000905b82821015610cf8578382906000526020600020018054600181600116156101000203166002900480601f016020809104026020016040519081016040528092919081815260200182805460018160011615610100020316600290048015610ce45780601f10610cb957610100808354040283529160200191610ce4565b820191906000526020600020905b815481529060010190602001808311610cc757829003601f168201915b505050505081526020019060010190610c3c565b505050509150600090505b8151811015610ee757836040516020018082805190602001908083835b602083101515610d455780518252602082019150602081019050602083039250610d20565b6001836020036101000a0380198251168184511680821785525050505050509050019150506040516020818303038152906040526040518082805190602001908083835b602083101515610dae5780518252602082019150602081019050602083039250610d89565b6001836020036101000a0380198251168184511680821785525050505050509050019150506040518091039020600190048282815181101515610ded57fe5b906020019060200201516040516020018082805190602001908083835b602083101515610e2f5780518252602082019150602081019050602083039250610e0a565b6001836020036101000a0380198251168184511680821785525050505050509050019150506040516020818303038152906040526040518082805190602001908083835b602083101515610e985780518252602082019150602081019050602083039250610e73565b6001836020036101000a0380198251168184511680821785525050505050509050019150506040518091039020600190041415610eda57600181019250610eec565b8080600101915050610d03565b600092505b505092915050565b6000809054906101000a900473ffffffffffffffffffffffffffffffffffffffff1673ffffffffffffffffffffffffffffffffffffffff163373ffffffffffffffffffffffffffffffffffffffff16141515610fb8576040517f08c379a000000000000000000000000000000000000000000000000000000000815260040180806020018281038252601c8152602001807f43616c6c6572206973206e6f7420636f6e7472616374206f776e65720000000081525060200191505060405180910390fd5b60018060008373ffffffffffffffffffffffffffffffffffffffff1673ffffffffffffffffffffffffffffffffffffffff1681526020019081526020016000208190555050565b60008060149054906101000a900460ff1615156110aa576040517f08c379a00000000000000000000000000000000000000000000000000000000081526004018080602001828103825260258152602001807f436f6e74726163742069732063757272656e746c79206e6f74206f706572617481526020017f696f6e616c00000000000000000000000000000000000000000000000000000081525060400191505060405180910390fd5b60018060003373ffffffffffffffffffffffffffffffffffffffff1673ffffffffffffffffffffffffffffffffffffffff16815260200190815260200160002054148061114357506000809054906101000a900473ffffffffffffffffffffffffffffffffffffffff1673ffffffffffffffffffffffffffffffffffffffff163373ffffffffffffffffffffffffffffffffffffffff16145b15156111b7576040517f08c379a000000000000000000000000000000000000000000000000000000000815260040180806020018281038252601b8152602001807f70617373656e676572206973206e6f7420417574686f72697a6564000000000081525060200191505060405180910390fd5b60016111f58487878080601f016020809104026020016040519081016040528093929190818152602001838380828437820191505050505050610b9c565b0390506001600460008573ffffffffffffffffffffffffffffffffffffffff1673ffffffffffffffffffffffffffffffffffffffff1681526020019081526020016000206001018281548110151561124957fe5b90600052602060002090602091828204019190066101000a81548160ff0219169083151502179055506112c482600760008673ffffffffffffffffffffffffffffffffffffffff1673ffffffffffffffffffffffffffffffffffffffff1681526020019081526020016000205461250c90919063ffffffff16565b600760008573ffffffffffffffffffffffffffffffffffffffff1673ffffffffffffffffffffffffffffffffffffffff168152602001908152602001600020819055505050505050565b606080606060008060149054906101000a900460ff1615156113be576040517f08c379a00000000000000000000000000000000000000000000000000000000081526004018080602001828103825260258152602001807f436f6e74726163742069732063757272656e746c79206e6f74206f706572617481526020017f696f6e616c00000000000000000000000000000000000000000000000000000081525060400191505060405180910390fd5b60018060003373ffffffffffffffffffffffffffffffffffffffff1673ffffffffffffffffffffffffffffffffffffffff16815260200190815260200160002054148061145757506000809054906101000a900473ffffffffffffffffffffffffffffffffffffffff1673ffffffffffffffffffffffffffffffffffffffff163373ffffffffffffffffffffffffffffffffffffffff16145b15156114cb576040517f08c379a000000000000000000000000000000000000000000000000000000000815260040180806020018281038252601b8152602001807f70617373656e676572206973206e6f7420417574686f72697a6564000000000081525060200191505060405180910390fd5b600360405190808252806020026020018201604052801561150057816020015b60608152602001906001900390816114eb5790505b50935060036040519080825280602002602001820160405280156115335781602001602082028038833980820191505090505b50925060036040519080825280602002602001820160405280156115665781602001602082028038833980820191505090505b50915060011515600460008a73ffffffffffffffffffffffffffffffffffffffff1673ffffffffffffffffffffffffffffffffffffffff16815260200190815260200160002060000160009054906101000a900460ff1615151415611680576116018887878080601f016020809104026020016040519081016040528093929190818152602001838380828437820191505050505050610b9c565b905060008114151561167b576040517f08c379a00000000000000000000000000000000000000000000000000000000081526004018080602001828103825260158152602001807f50617373656e67657220697320696e73757265642e000000000000000000000081525060200191505060405180910390fd5b6117f1565b600083600081518110151561169157fe5b9060200190602002019015159081151581525050868260008151811015156116b557fe5b906020019060200201818152505085858080601f01602080910402602001604051908101604052809392919081815260200183838082843782019150505050505084600081518110151561170557fe5b9060200190602002018190525060806040519081016040528060011515815260200184815260200183815260200185815250600460008a73ffffffffffffffffffffffffffffffffffffffff1673ffffffffffffffffffffffffffffffffffffffff16815260200190815260200160002060008201518160000160006101000a81548160ff02191690831515021790555060208201518160010190805190602001906117b29291906125cb565b5060408201518160020190805190602001906117cf929190612671565b5060608201518160030190805190602001906117ec9291906126be565b509050505b6118068760065461250c90919063ffffffff16565b600681905550600586866040518083838082843782019150509250505090815260200160405180910390208890806001815401808255809150509060018203906000526020600020016000909192909190916101000a81548173ffffffffffffffffffffffffffffffffffffffff021916908373ffffffffffffffffffffffffffffffffffffffff160217905550506118cd87600988886040518083838082843782019150509250505090815260200160405180910390205461250c90919063ffffffff16565b60098787604051808383808284378201915050925050509081526020016040518091039020819055505050505050505050565b600060149054906101000a900460ff1615156119aa576040517f08c379a00000000000000000000000000000000000000000000000000000000081526004018080602001828103825260258152602001807f436f6e74726163742069732063757272656e746c79206e6f74206f706572617481526020017f696f6e616c00000000000000000000000000000000000000000000000000000081525060400191505060405180910390fd5b60408051908101604052806001151581526020016000815250600260008373ffffffffffffffffffffffffffffffffffffffff1673ffffffffffffffffffffffffffffffffffffffff16815260200190815260200160002060008201518160000160006101000a81548160ff0219169083151502179055506020820151816001015590505060038190806001815401808255809150509060018203906000526020600020016000909192909190916101000a81548173ffffffffffffffffffffffffffffffffffffffff021916908373ffffffffffffffffffffffffffffffffffffffff1602179055505050565b600080600060149054906101000a900460ff161515611b45576040517f08c379a00000000000000000000000000000000000000000000000000000000081526004018080602001828103825260258152602001807f436f6e74726163742069732063757272656e746c79206e6f74206f706572617481526020017f696f6e616c00000000000000000000000000000000000000000000000000000081525060400191505060405180910390fd5b6001611b838487878080601f016020809104026020016040519081016040528093929190818152602001838380828437820191505050505050610b9c565b03905060001515600460008573ffffffffffffffffffffffffffffffffffffffff1673ffffffffffffffffffffffffffffffffffffffff16815260200190815260200160002060010182815481101515611bd957fe5b90600052602060002090602091828204019190069054906101000a900460ff1615151415611c6257600460008473ffffffffffffffffffffffffffffffffffffffff1673ffffffffffffffffffffffffffffffffffffffff16815260200190815260200160002060020181815481101515611c5057fe5b90600052602060002001549150611c67565b600091505b509392505050565b6000809054906101000a900473ffffffffffffffffffffffffffffffffffffffff1673ffffffffffffffffffffffffffffffffffffffff163373ffffffffffffffffffffffffffffffffffffffff16141515611d33576040517f08c379a000000000000000000000000000000000000000000000000000000000815260040180806020018281038252601c8152602001807f43616c6c6572206973206e6f7420636f6e7472616374206f776e65720000000081525060200191505060405180910390fd5b600160008273ffffffffffffffffffffffffffffffffffffffff1673ffffffffffffffffffffffffffffffffffffffff1681526020019081526020016000206000905550565b60008060149054906101000a900460ff161515611e24576040517f08c379a00000000000000000000000000000000000000000000000000000000081526004018080602001828103825260258152602001807f436f6e74726163742069732063757272656e746c79206e6f74206f706572617481526020017f696f6e616c00000000000000000000000000000000000000000000000000000081525060400191505060405180910390fd5b600380549050905090565b60008060149054906101000a900460ff161515611eda576040517f08c379a00000000000000000000000000000000000000000000000000000000081526004018080602001828103825260258152602001807f436f6e74726163742069732063757272656e746c79206e6f74206f706572617481526020017f696f6e616c00000000000000000000000000000000000000000000000000000081525060400191505060405180910390fd5b60018060003373ffffffffffffffffffffffffffffffffffffffff1673ffffffffffffffffffffffffffffffffffffffff168152602001908152602001600020541480611f7357506000809054906101000a900473ffffffffffffffffffffffffffffffffffffffff1673ffffffffffffffffffffffffffffffffffffffff163373ffffffffffffffffffffffffffffffffffffffff16145b1515611fe7576040517f08c379a000000000000000000000000000000000000000000000000000000000815260040180806020018281038252601b8152602001807f70617373656e676572206973206e6f7420417574686f72697a6564000000000081525060200191505060405180910390fd5b600760008373ffffffffffffffffffffffffffffffffffffffff1673ffffffffffffffffffffffffffffffffffffffff168152602001908152602001600020543073ffffffffffffffffffffffffffffffffffffffff16311115156120b4576040517f08c379a00000000000000000000000000000000000000000000000000000000081526004018080602001828103825260128152602001807f496e73756666696369656e742046756e6473000000000000000000000000000081525060200191505060405180910390fd5b600760008373ffffffffffffffffffffffffffffffffffffffff1673ffffffffffffffffffffffffffffffffffffffff1681526020019081526020016000205490506000600760008473ffffffffffffffffffffffffffffffffffffffff1673ffffffffffffffffffffffffffffffffffffffff168152602001908152602001600020819055506121508160065461252890919063ffffffff16565b6006819055508173ffffffffffffffffffffffffffffffffffffffff166108fc829081150290604051600060405180830381858888f1935050505015801561219c573d6000803e3d6000fd5b505050565b6008818154811015156121b057fe5b906000526020600020016000915054906101000a900473ffffffffffffffffffffffffffffffffffffffff1681565b6060600060149054906101000a900460ff16151561228b576040517f08c379a00000000000000000000000000000000000000000000000000000000081526004018080602001828103825260258152602001807f436f6e74726163742069732063757272656e746c79206e6f74206f706572617481526020017f696f6e616c00000000000000000000000000000000000000000000000000000081525060400191505060405180910390fd5b6005838360405180838380828437820191505092505050908152602001604051809103902080548060200260200160405190810160405280929190818152602001828054801561233057602002820191906000526020600020905b8160009054906101000a900473ffffffffffffffffffffffffffffffffffffffff1673ffffffffffffffffffffffffffffffffffffffff16815260200190600101908083116122e6575b5050505050905092915050565b600060088281548110151561234e57fe5b9060005260206000200160009054906101000a900473ffffffffffffffffffffffffffffffffffffffff169050919050565b60008060149054906101000a900460ff16905090565b60088190806001815401808255809150509060018203906000526020600020016000909192909190916101000a81548173ffffffffffffffffffffffffffffffffffffffff021916908373ffffffffffffffffffffffffffffffffffffffff1602179055505050565b6000600880549050905090565b60008060149054906101000a900460ff1615156124b7576040517f08c379a00000000000000000000000000000000000000000000000000000000081526004018080602001828103825260258152602001807f436f6e74726163742069732063757272656e746c79206e6f74206f706572617481526020017f696f6e616c00000000000000000000000000000000000000000000000000000081525060400191505060405180910390fd5b678ac7230489e80000600260008473ffffffffffffffffffffffffffffffffffffffff1673ffffffffffffffffffffffffffffffffffffffff1681526020019081526020016000206001015410159050919050565b6000818301905082811015151561251f57fe5b80905092915050565b600082821115151561253657fe5b818303905092915050565b8280548282559060005260206000209081019282156125ba579160200282015b828111156125b95782518260006101000a81548173ffffffffffffffffffffffffffffffffffffffff021916908373ffffffffffffffffffffffffffffffffffffffff16021790555091602001919060010190612561565b5b5090506125c7919061271e565b5090565b82805482825590600052602060002090601f016020900481019282156126605791602002820160005b8382111561263157835183826101000a81548160ff02191690831515021790555092602001926001016020816000010492830192600103026125f4565b801561265e5782816101000a81549060ff0219169055600101602081600001049283019260010302612631565b505b50905061266d9190612761565b5090565b8280548282559060005260206000209081019282156126ad579160200282015b828111156126ac578251825591602001919060010190612691565b5b5090506126ba9190612791565b5090565b82805482825590600052602060002090810192821561270d579160200282015b8281111561270c5782518290805190602001906126fc9291906127b6565b50916020019190600101906126de565b5b50905061271a9190612836565b5090565b61275e91905b8082111561275a57600081816101000a81549073ffffffffffffffffffffffffffffffffffffffff021916905550600101612724565b5090565b90565b61278e91905b8082111561278a57600081816101000a81549060ff021916905550600101612767565b5090565b90565b6127b391905b808211156127af576000816000905550600101612797565b5090565b90565b828054600181600116156101000203166002900490600052602060002090601f016020900481019282601f106127f757805160ff1916838001178555612825565b82800160010185558215612825579182015b82811115612824578251825591602001919060010190612809565b5b5090506128329190612791565b5090565b61285f91905b8082111561285b57600081816128529190612862565b5060010161283c565b5090565b90565b50805460018160011615610100020316600290046000825580601f1061288857506128a7565b601f0160209004906000526020600020908101906128a69190612791565b5b505600a165627a7a72305820854b8391f094e217811e910a3bac9b5580221a7cf747fbeaa3df622258df06be0029",
  "source": "pragma solidity ^0.4.25;\n\nimport \"../node_modules/openzeppelin-solidity/contracts/math/SafeMath.sol\";\n\ncontract FlightSuretyData {\n    using SafeMath for uint256;\n\n    /********************************************************************************************/\n    /*                                       DATA VARIABLES                                     */\n    /********************************************************************************************/\n\n    // Account used to deploy contract\n    address private contractOwner; \n\n    // Blocks all state changes throughout the contract if false\n    bool private operational = true;                                    \n\n    // maps authorizedpassenger variable to address of integer\n    mapping(address => uint256) private authorizedpassenger;                \n\n    //Captures the attributes of the airline\n    struct AirlineStruct {\n        bool isRegistered;\n        uint256 funds;\n    }\n\n    // maps airline variable to struct\n    mapping(address => AirlineStruct) private airlines;\n    //array\n    address[] private registeredAirlines;\n\n    //Captures the attributes of passenger\n    struct PassengerStruct {\n        bool isInsured;     \n        bool[] isPaid;\n        uint256[] insurance;\n        string[] flights;\n    }\n\n    mapping(address => PassengerStruct) private passengersMapping;\n    mapping(string => address[]) flightPassengers;\n\n\n    // the contract holds balance of insurance\n    uint256 private balance = 0 ether;\n    // registration fee\n    uint256 constant registration = 10 ether;\n\n    // passenger[x].funds\n    mapping(address => uint256) private insurancePayment;\n\n   // consensus array\n    address[] public multiCalls = new address[](0);\n    //Flight mapping Amount\n    mapping(string => uint256) private flightInsuranceAmount;\n    /********************************************************************************************/\n    /*                                       EVENT DEFINITIONS                                  */\n    /********************************************************************************************/\n\n\n    /**\n    * @dev Constructor\n    *      The deploying account becomes contractOwner\n    */\n    //https://ethereum.stackexchange.com/questions/56443/what-does-mean-before-a-variable-name\n    constructor\n                                (\n                                    address _airline\n                                ) \n                                public \n    {\n        contractOwner = msg.sender;\n\n        // Create first Airline\n        airlines[_airline] =  AirlineStruct({isRegistered: true, funds: 0});\n    }\n\n    \n\n    /********************************************************************************************/\n    /*                                       FUNCTION MODIFIERS                                 */\n    /********************************************************************************************/\n\n    // Modifiers help avoid duplication of code. They are typically used to validate something\n    // before a function is allowed to be executed.\n\n    /**\n    * @dev Modifier that requires the \"operational\" boolean variable to be \"true\"\n    *      This is used on all state changing functions to pause the contract in \n    *      the event there is an issue that needs to be fixed\n    */\n    modifier requireIsOperational() \n    {\n        require(operational, \"Contract is currently not operational\");\n        _;  // All modifiers require an \"_\" which indicates where the function body will be added\n    }\n\n    /**\n    * @dev Modifier that requires the \"ContractOwner\" account to be the function caller\n    */\n    modifier requireContractOwner()\n    {\n        require(msg.sender == contractOwner, \"Caller is not contract owner\");\n        _;\n    }\n\n    modifier requireIspassengerAuthorized()\n    {\n        require(authorizedpassenger[msg.sender] == 1 ||msg.sender == contractOwner, \"passenger is not Authorized\");\n        _;\n    }\n\n    /********************************************************************************************/\n    /*                                       UTILITY FUNCTIONS                                  */\n    /********************************************************************************************/\n\n    /**\n    * @dev Get operating status of contract\n    *\n    * @return A bool that is the current operating status\n    */      \n    function isOperational() \n                            public \n                            view \n                            returns(bool) \n    {\n        return operational;\n    }\n\n    /**\n    * @dev Sets contract operations on/off\n    *\n    * When operational mode is disabled, all write transactions except for this one will fail\n    */    \n    function setOperatingStatus\n                            (\n                                bool mode\n                            ) \n                            external\n                            requireContractOwner \n    {\n        operational = mode;\n    }\n\n    function authorizePassengerFunction(address contractAddress) external requireContractOwner\n    {\n        authorizedpassenger[contractAddress] = 1;\n    }\n\n    function deauthorizepassengerFunction(address contractAddress) external requireContractOwner\n    {\n        delete authorizedpassenger[contractAddress];\n    }\n    function isAirlineRegisteredFunction\n                            (\n                                address _address\n                            )\n                            external\n                            view\n                            returns(bool)\n    {\n        return airlines[_address].isRegistered;\n    }\n\n    function isAirlineFunded\n                            (\n                                address _airline\n                            ) \n                            external \n                            view \n                            requireIsOperational \n                            returns (bool) \n    {\n        return airlines[_airline].funds >= registration;\n    }\n\n    /********************************************************************************************/\n    /*                                     SMART CONTRACT FUNCTIONS                             */\n    /********************************************************************************************/\n\n   /**\n    * @dev Add an airline to the registration queue\n    *      Can only be called from FlightSuretyApp contract\n    *\n    */   \n    function registerAirlineFunction\n                            (   \n                                address _address \n                            )\n                            external\n                            requireIsOperational\n                    \n    {\n        airlines[_address] = AirlineStruct ({\n                                        isRegistered: true,\n                                        funds: 0\n                                    });\n        registeredAirlines.push(_address);\n    }\n\n   /**\n    * @dev Buy insurance for a flight\n    *\n    */   \n    function buyFunction\n                            (   \n                            address _passenger,\n                            uint256 _insurancePrice,\n                            string _flight\n                            )\n                            external\n                            payable\n                            requireIsOperational\n                            requireIspassengerAuthorized\n    {\n        string[] memory flights = new string[](3);\n        bool[] memory paid = new bool[](3);\n        uint256[] memory insurance = new uint[](3);\n        uint index;\n\n        if(passengersMapping[_passenger].isInsured == true){\n            index = fetchFlightIndexFunction(_passenger, _flight) ;\n            require(index == 0, \"Passenger is insured.\");\n\n        }else {\n            paid[0] = false;\n            insurance[0] = _insurancePrice;\n            flights[0] = _flight;\n            passengersMapping[_passenger] = PassengerStruct({isInsured: true, isPaid: paid, insurance: insurance, flights: flights});\n        }\n\n        // pay for the insurance amount\n        balance = balance.add(_insurancePrice);\n        flightPassengers[_flight].push(_passenger);\n        flightInsuranceAmount[_flight] = flightInsuranceAmount[_flight].add(_insurancePrice);\n    }\n\n    /**\n     *  @dev Credits payouts to insurees\n    */\n\n    /**\n     *  @dev Transfers eligible payout funds to insuree\n     *\n    */\n    function payFunction\n                            (\n                                address _originSender\n                            )\n                            public\n                            payable\n                            requireIsOperational\n                            requireIspassengerAuthorized\n    {\n        require(address(this).balance > insurancePayment[_originSender], \"Insufficient Funds\");\n\n        uint256 deposit = insurancePayment[_originSender];\n        insurancePayment[_originSender] = 0;\n        balance = balance.sub(deposit);\n        _originSender.transfer(deposit);\n    }\n\n    function setInsuredFunction\n                        (\n                            string _flight, \n                            address _passenger,\n                            uint _amount\n                        ) \n                        external \n                        requireIsOperational\n                        requireIspassengerAuthorized\n    {\n\n        uint index = fetchFlightIndexFunction(_passenger, _flight) - 1;\n        passengersMapping[_passenger].isPaid[index] = true;\n        insurancePayment[_passenger] = insurancePayment[_passenger].add(_amount);\n    }\n\n    function getInsuredFunction\n                        (\n                            string _flight\n                        ) \n                        external \n                        view \n                        requireIsOperational \n                        returns(address[] passengers)\n    {\n        return flightPassengers[_flight];\n    }\n\n    function getRegisteredAirlinesNumberFunction() public view requireIsOperational returns (uint num){\n        return registeredAirlines.length;\n    }\n\n    function isAirlineRegistered(address _airline) public view requireIsOperational returns (bool success) {\n        return airlines[_airline].isRegistered;\n    }\n\n    function getMultiCallsLength() public view returns(uint){\n        return multiCalls.length;\n    }\n\n    function getMultiCallsItem(uint _i) public view returns(address){\n        return multiCalls[_i];\n    }\n    function setMultiCallsItem(address _address) public {\n        multiCalls.push(_address);\n    }\n\n    function clearMultiCalls() public{\n        multiCalls = new address[](0);\n    }\n\n    function getInsuredInfoFunction(string _flight, address _passenger) external view requireIsOperational returns (uint amount){\n        uint index = fetchFlightIndexFunction(_passenger, _flight) - 1;\n        if(passengersMapping[_passenger].isPaid[index] == false)\n        {\n            return passengersMapping[_passenger].insurance[index];\n        }\n        return 0;\n    }\n    function fundFunction\n                            (  \n                                address _airline,\n                                uint256 _fund  \n                            )\n                            public\n                            payable\n                            requireIsOperational\n    {\n        airlines[_airline].funds = airlines[_airline].funds.add(_fund);\n        balance = balance.add(_fund);\n    }\n   /**\n    * @dev Initial funding for the insurance. Unless there are too many delayed flights\n    *      resulting in insurance payouts, the contract should be self-sustaining\n    *\n    */   \n\n    function fetchFlightIndexFunction\n                                (\n                                    address _passenger, \n                                    string memory _flight\n                                ) \n                                public \n                                view \n                                returns(uint index)\n    {\n        string[] memory flights = new string[](5);\n        flights = passengersMapping[_passenger].flights;\n\n        for(uint i = 0; i < flights.length; i++){\n            if(uint(keccak256(abi.encodePacked(flights[i]))) == uint(keccak256(abi.encodePacked(_flight)))) \n            {\n                return(i + 1);\n            }\n        }\n\n        return(0);\n    }\n\n\n    function getFlightKey\n                        (\n                            address _airline,\n                            string memory _flight,\n                            uint256 _timestamp\n                        )\n                        pure\n                        internal\n                        returns(bytes32) \n    {\n        return keccak256(abi.encodePacked(_airline, _flight, _timestamp));\n    }\n}",
  "sourcePath": "/Users/203014767/FlightSurety-master/contracts/FlightSuretyData.sol",
  "compiler": {
    "name": "solc",
    "version": "0.4.25+commit.59dbf8f1.Emscripten.clang"
  },
  "schemaVersion": "3.0.6",
  "updatedAt": "2019-04-18T18:59:30.398Z",
  "devdoc": {
    "methods": {
      "buyFunction(address,uint256,string)": {
        "details": "Buy insurance for a flight    "
      },
      "fetchFlightIndexFunction(address,string)": {
        "details": "Initial funding for the insurance. Unless there are too many delayed flights     resulting in insurance payouts, the contract should be self-sustaining    "
      },
      "isOperational()": {
        "details": "Get operating status of contract",
        "return": "A bool that is the current operating status"
      },
      "payFunction(address)": {
        "details": "Transfers eligible payout funds to insuree    "
      },
      "registerAirlineFunction(address)": {
        "details": "Add an airline to the registration queue     Can only be called from FlightSuretyApp contract    "
      },
      "setOperatingStatus(bool)": {
        "details": "Sets contract operations on/off    * When operational mode is disabled, all write transactions except for this one will fail"
      }
    }
  },
  "userdoc": {
    "methods": {}
  }
}